{
	"src/Oracle.sol": {
		"Oracle": {
			"abi": [
				{
					"inputs": [
						{
							"internalType": "uint8",
							"name": "_seed",
							"type": "uint8"
						}
					],
					"stateMutability": "nonpayable",
					"type": "constructor"
				},
				{
					"inputs": [
						{
							"internalType": "uint8",
							"name": "_seed",
							"type": "uint8"
						}
					],
					"name": "changeSeed",
					"outputs": [],
					"stateMutability": "nonpayable",
					"type": "function"
				},
				{
					"inputs": [],
					"name": "getRandomNumber",
					"outputs": [
						{
							"internalType": "uint256",
							"name": "",
							"type": "uint256"
						}
					],
					"stateMutability": "view",
					"type": "function"
				}
			],
			"devdoc": {
				"author": "Sparx - https://github.com/letsgitcracking",
				"kind": "dev",
				"methods": {},
				"title": "Oracle for Lottery Game",
				"version": 1
			},
			"evm": {
				"assembly": "    /* \"src/Oracle.sol\":235:700  contract Oracle {... */\n  mstore(0x40, 0x80)\n    /* \"src/Oracle.sol\":422:503  constructor(uint8 _seed){... */\n  callvalue\n  dup1\n  iszero\n  tag_1\n  jumpi\n  0x00\n  dup1\n  revert\ntag_1:\n  pop\n  mload(0x40)\n  sub(codesize, bytecodeSize)\n  dup1\n  bytecodeSize\n  dup4\n  codecopy\n  dup2\n  dup2\n  add\n  0x40\n  mstore\n  dup2\n  add\n  swap1\n  tag_2\n  swap2\n  swap1\n  tag_3\n  jump\t// in\ntag_2:\n    /* \"src/Oracle.sol\":464:474  msg.sender */\n  caller\n    /* \"src/Oracle.sol\":456:461  owner */\n  0x00\n  0x01\n    /* \"src/Oracle.sol\":456:474  owner = msg.sender */\n  0x0100\n  exp\n  dup2\n  sload\n  dup2\n  0xffffffffffffffffffffffffffffffffffffffff\n  mul\n  not\n  and\n  swap1\n  dup4\n  0xffffffffffffffffffffffffffffffffffffffff\n  and\n  mul\n  or\n  swap1\n  sstore\n  pop\n    /* \"src/Oracle.sol\":491:496  _seed */\n  dup1\n    /* \"src/Oracle.sol\":484:488  seed */\n  0x00\n  dup1\n    /* \"src/Oracle.sol\":484:496  seed = _seed */\n  0x0100\n  exp\n  dup2\n  sload\n  dup2\n  0xff\n  mul\n  not\n  and\n  swap1\n  dup4\n  0xff\n  and\n  mul\n  or\n  swap1\n  sstore\n  pop\n    /* \"src/Oracle.sol\":422:503  constructor(uint8 _seed){... */\n  pop\n    /* \"src/Oracle.sol\":235:700  contract Oracle {... */\n  jump(tag_6)\n    /* \"#utility.yul\":7:146   */\ntag_8:\n    /* \"#utility.yul\":62:67   */\n  0x00\n    /* \"#utility.yul\":93:99   */\n  dup2\n    /* \"#utility.yul\":87:100   */\n  mload\n    /* \"#utility.yul\":78:100   */\n  swap1\n  pop\n    /* \"#utility.yul\":109:140   */\n  tag_10\n    /* \"#utility.yul\":134:139   */\n  dup2\n    /* \"#utility.yul\":109:140   */\n  tag_11\n  jump\t// in\ntag_10:\n    /* \"#utility.yul\":7:146   */\n  swap3\n  swap2\n  pop\n  pop\n  jump\t// out\n    /* \"#utility.yul\":152:499   */\ntag_3:\n    /* \"#utility.yul\":220:226   */\n  0x00\n    /* \"#utility.yul\":269:271   */\n  0x20\n    /* \"#utility.yul\":257:266   */\n  dup3\n    /* \"#utility.yul\":248:255   */\n  dup5\n    /* \"#utility.yul\":244:267   */\n  sub\n    /* \"#utility.yul\":240:272   */\n  slt\n    /* \"#utility.yul\":237:356   */\n  iszero\n  tag_13\n  jumpi\n    /* \"#utility.yul\":275:354   */\n  tag_14\n  tag_15\n  jump\t// in\ntag_14:\n    /* \"#utility.yul\":237:356   */\ntag_13:\n    /* \"#utility.yul\":395:396   */\n  0x00\n    /* \"#utility.yul\":420:482   */\n  tag_16\n    /* \"#utility.yul\":474:481   */\n  dup5\n    /* \"#utility.yul\":465:471   */\n  dup3\n    /* \"#utility.yul\":454:463   */\n  dup6\n    /* \"#utility.yul\":450:472   */\n  add\n    /* \"#utility.yul\":420:482   */\n  tag_8\n  jump\t// in\ntag_16:\n    /* \"#utility.yul\":410:482   */\n  swap2\n  pop\n    /* \"#utility.yul\":366:492   */\n  pop\n    /* \"#utility.yul\":152:499   */\n  swap3\n  swap2\n  pop\n  pop\n  jump\t// out\n    /* \"#utility.yul\":586:672   */\ntag_19:\n    /* \"#utility.yul\":621:628   */\n  0x00\n    /* \"#utility.yul\":661:665   */\n  0xff\n    /* \"#utility.yul\":654:659   */\n  dup3\n    /* \"#utility.yul\":650:666   */\n  and\n    /* \"#utility.yul\":639:666   */\n  swap1\n  pop\n    /* \"#utility.yul\":586:672   */\n  swap2\n  swap1\n  pop\n  jump\t// out\n    /* \"#utility.yul\":801:918   */\ntag_15:\n    /* \"#utility.yul\":910:911   */\n  0x00\n    /* \"#utility.yul\":907:908   */\n  dup1\n    /* \"#utility.yul\":900:912   */\n  revert\n    /* \"#utility.yul\":924:1042   */\ntag_11:\n    /* \"#utility.yul\":995:1017   */\n  tag_25\n    /* \"#utility.yul\":1011:1016   */\n  dup2\n    /* \"#utility.yul\":995:1017   */\n  tag_19\n  jump\t// in\ntag_25:\n    /* \"#utility.yul\":988:993   */\n  dup2\n    /* \"#utility.yul\":985:1018   */\n  eq\n    /* \"#utility.yul\":975:1036   */\n  tag_26\n  jumpi\n    /* \"#utility.yul\":1032:1033   */\n  0x00\n    /* \"#utility.yul\":1029:1030   */\n  dup1\n    /* \"#utility.yul\":1022:1034   */\n  revert\n    /* \"#utility.yul\":975:1036   */\ntag_26:\n    /* \"#utility.yul\":924:1042   */\n  pop\n  jump\t// out\n    /* \"src/Oracle.sol\":235:700  contract Oracle {... */\ntag_6:\n  dataSize(sub_0)\n  dup1\n  dataOffset(sub_0)\n  0x00\n  codecopy\n  0x00\n  return\nstop\n\nsub_0: assembly {\n        /* \"src/Oracle.sol\":235:700  contract Oracle {... */\n      mstore(0x40, 0x80)\n      callvalue\n      dup1\n      iszero\n      tag_1\n      jumpi\n      0x00\n      dup1\n      revert\n    tag_1:\n      pop\n      jumpi(tag_2, lt(calldatasize, 0x04))\n      shr(0xe0, calldataload(0x00))\n      dup1\n      0x371f407b\n      eq\n      tag_3\n      jumpi\n      dup1\n      0xdbdff2c1\n      eq\n      tag_4\n      jumpi\n    tag_2:\n      0x00\n      dup1\n      revert\n        /* \"src/Oracle.sol\":617:698  function changeSeed(uint8 _seed) external onlyOwner {... */\n    tag_3:\n      tag_5\n      0x04\n      dup1\n      calldatasize\n      sub\n      dup2\n      add\n      swap1\n      tag_6\n      swap2\n      swap1\n      tag_7\n      jump\t// in\n    tag_6:\n      tag_8\n      jump\t// in\n    tag_5:\n      stop\n        /* \"src/Oracle.sol\":509:611  function getRandomNumber() external view returns (uint256) {... */\n    tag_4:\n      tag_9\n      tag_10\n      jump\t// in\n    tag_9:\n      mload(0x40)\n      tag_11\n      swap2\n      swap1\n      tag_12\n      jump\t// in\n    tag_11:\n      mload(0x40)\n      dup1\n      swap2\n      sub\n      swap1\n      return\n        /* \"src/Oracle.sol\":617:698  function changeSeed(uint8 _seed) external onlyOwner {... */\n    tag_8:\n        /* \"src/Oracle.sol\":379:384  owner */\n      0x00\n      0x01\n      swap1\n      sload\n      swap1\n      0x0100\n      exp\n      swap1\n      div\n      0xffffffffffffffffffffffffffffffffffffffff\n      and\n        /* \"src/Oracle.sol\":365:384  msg.sender == owner */\n      0xffffffffffffffffffffffffffffffffffffffff\n      and\n        /* \"src/Oracle.sol\":365:375  msg.sender */\n      caller\n        /* \"src/Oracle.sol\":365:384  msg.sender == owner */\n      0xffffffffffffffffffffffffffffffffffffffff\n      and\n      eq\n        /* \"src/Oracle.sol\":357:398  require(msg.sender == owner, \"Not owner\") */\n      tag_14\n      jumpi\n      mload(0x40)\n      0x08c379a000000000000000000000000000000000000000000000000000000000\n      dup2\n      mstore\n      0x04\n      add\n      tag_15\n      swap1\n      tag_16\n      jump\t// in\n    tag_15:\n      mload(0x40)\n      dup1\n      swap2\n      sub\n      swap1\n      revert\n    tag_14:\n        /* \"src/Oracle.sol\":686:691  _seed */\n      dup1\n        /* \"src/Oracle.sol\":679:683  seed */\n      0x00\n      dup1\n        /* \"src/Oracle.sol\":679:691  seed = _seed */\n      0x0100\n      exp\n      dup2\n      sload\n      dup2\n      0xff\n      mul\n      not\n      and\n      swap1\n      dup4\n      0xff\n      and\n      mul\n      or\n      swap1\n      sstore\n      pop\n        /* \"src/Oracle.sol\":617:698  function changeSeed(uint8 _seed) external onlyOwner {... */\n      pop\n      jump\t// out\n        /* \"src/Oracle.sol\":509:611  function getRandomNumber() external view returns (uint256) {... */\n    tag_10:\n        /* \"src/Oracle.sol\":559:566  uint256 */\n      0x00\n        /* \"src/Oracle.sol\":600:604  seed */\n      dup1\n      0x00\n      swap1\n      sload\n      swap1\n      0x0100\n      exp\n      swap1\n      div\n      0xff\n      and\n        /* \"src/Oracle.sol\":585:604  block.number % seed */\n      0xff\n      and\n        /* \"src/Oracle.sol\":585:597  block.number */\n      number\n        /* \"src/Oracle.sol\":585:604  block.number % seed */\n      tag_19\n      swap2\n      swap1\n      tag_20\n      jump\t// in\n    tag_19:\n        /* \"src/Oracle.sol\":578:604  return block.number % seed */\n      swap1\n      pop\n        /* \"src/Oracle.sol\":509:611  function getRandomNumber() external view returns (uint256) {... */\n      swap1\n      jump\t// out\n        /* \"#utility.yul\":7:142   */\n    tag_22:\n        /* \"#utility.yul\":51:56   */\n      0x00\n        /* \"#utility.yul\":89:95   */\n      dup2\n        /* \"#utility.yul\":76:96   */\n      calldataload\n        /* \"#utility.yul\":67:96   */\n      swap1\n      pop\n        /* \"#utility.yul\":105:136   */\n      tag_24\n        /* \"#utility.yul\":130:135   */\n      dup2\n        /* \"#utility.yul\":105:136   */\n      tag_25\n      jump\t// in\n    tag_24:\n        /* \"#utility.yul\":7:142   */\n      swap3\n      swap2\n      pop\n      pop\n      jump\t// out\n        /* \"#utility.yul\":148:473   */\n    tag_7:\n        /* \"#utility.yul\":205:211   */\n      0x00\n        /* \"#utility.yul\":254:256   */\n      0x20\n        /* \"#utility.yul\":242:251   */\n      dup3\n        /* \"#utility.yul\":233:240   */\n      dup5\n        /* \"#utility.yul\":229:252   */\n      sub\n        /* \"#utility.yul\":225:257   */\n      slt\n        /* \"#utility.yul\":222:341   */\n      iszero\n      tag_27\n      jumpi\n        /* \"#utility.yul\":260:339   */\n      tag_28\n      tag_29\n      jump\t// in\n    tag_28:\n        /* \"#utility.yul\":222:341   */\n    tag_27:\n        /* \"#utility.yul\":380:381   */\n      0x00\n        /* \"#utility.yul\":405:456   */\n      tag_30\n        /* \"#utility.yul\":448:455   */\n      dup5\n        /* \"#utility.yul\":439:445   */\n      dup3\n        /* \"#utility.yul\":428:437   */\n      dup6\n        /* \"#utility.yul\":424:446   */\n      add\n        /* \"#utility.yul\":405:456   */\n      tag_22\n      jump\t// in\n    tag_30:\n        /* \"#utility.yul\":395:456   */\n      swap2\n      pop\n        /* \"#utility.yul\":351:466   */\n      pop\n        /* \"#utility.yul\":148:473   */\n      swap3\n      swap2\n      pop\n      pop\n      jump\t// out\n        /* \"#utility.yul\":479:844   */\n    tag_31:\n        /* \"#utility.yul\":621:624   */\n      0x00\n        /* \"#utility.yul\":642:708   */\n      tag_33\n        /* \"#utility.yul\":706:707   */\n      0x09\n        /* \"#utility.yul\":701:704   */\n      dup4\n        /* \"#utility.yul\":642:708   */\n      tag_34\n      jump\t// in\n    tag_33:\n        /* \"#utility.yul\":635:708   */\n      swap2\n      pop\n        /* \"#utility.yul\":717:810   */\n      tag_35\n        /* \"#utility.yul\":806:809   */\n      dup3\n        /* \"#utility.yul\":717:810   */\n      tag_36\n      jump\t// in\n    tag_35:\n        /* \"#utility.yul\":835:837   */\n      0x20\n        /* \"#utility.yul\":830:833   */\n      dup3\n        /* \"#utility.yul\":826:838   */\n      add\n        /* \"#utility.yul\":819:838   */\n      swap1\n      pop\n        /* \"#utility.yul\":479:844   */\n      swap2\n      swap1\n      pop\n      jump\t// out\n        /* \"#utility.yul\":850:968   */\n    tag_37:\n        /* \"#utility.yul\":937:961   */\n      tag_39\n        /* \"#utility.yul\":955:960   */\n      dup2\n        /* \"#utility.yul\":937:961   */\n      tag_40\n      jump\t// in\n    tag_39:\n        /* \"#utility.yul\":932:935   */\n      dup3\n        /* \"#utility.yul\":925:962   */\n      mstore\n        /* \"#utility.yul\":850:968   */\n      pop\n      pop\n      jump\t// out\n        /* \"#utility.yul\":974:1393   */\n    tag_16:\n        /* \"#utility.yul\":1140:1144   */\n      0x00\n        /* \"#utility.yul\":1178:1180   */\n      0x20\n        /* \"#utility.yul\":1167:1176   */\n      dup3\n        /* \"#utility.yul\":1163:1181   */\n      add\n        /* \"#utility.yul\":1155:1181   */\n      swap1\n      pop\n        /* \"#utility.yul\":1227:1236   */\n      dup2\n        /* \"#utility.yul\":1221:1225   */\n      dup2\n        /* \"#utility.yul\":1217:1237   */\n      sub\n        /* \"#utility.yul\":1213:1214   */\n      0x00\n        /* \"#utility.yul\":1202:1211   */\n      dup4\n        /* \"#utility.yul\":1198:1215   */\n      add\n        /* \"#utility.yul\":1191:1238   */\n      mstore\n        /* \"#utility.yul\":1255:1386   */\n      tag_42\n        /* \"#utility.yul\":1381:1385   */\n      dup2\n        /* \"#utility.yul\":1255:1386   */\n      tag_31\n      jump\t// in\n    tag_42:\n        /* \"#utility.yul\":1247:1386   */\n      swap1\n      pop\n        /* \"#utility.yul\":974:1393   */\n      swap2\n      swap1\n      pop\n      jump\t// out\n        /* \"#utility.yul\":1399:1621   */\n    tag_12:\n        /* \"#utility.yul\":1492:1496   */\n      0x00\n        /* \"#utility.yul\":1530:1532   */\n      0x20\n        /* \"#utility.yul\":1519:1528   */\n      dup3\n        /* \"#utility.yul\":1515:1533   */\n      add\n        /* \"#utility.yul\":1507:1533   */\n      swap1\n      pop\n        /* \"#utility.yul\":1543:1614   */\n      tag_44\n        /* \"#utility.yul\":1611:1612   */\n      0x00\n        /* \"#utility.yul\":1600:1609   */\n      dup4\n        /* \"#utility.yul\":1596:1613   */\n      add\n        /* \"#utility.yul\":1587:1593   */\n      dup5\n        /* \"#utility.yul\":1543:1614   */\n      tag_37\n      jump\t// in\n    tag_44:\n        /* \"#utility.yul\":1399:1621   */\n      swap3\n      swap2\n      pop\n      pop\n      jump\t// out\n        /* \"#utility.yul\":1708:1877   */\n    tag_34:\n        /* \"#utility.yul\":1792:1803   */\n      0x00\n        /* \"#utility.yul\":1826:1832   */\n      dup3\n        /* \"#utility.yul\":1821:1824   */\n      dup3\n        /* \"#utility.yul\":1814:1833   */\n      mstore\n        /* \"#utility.yul\":1866:1870   */\n      0x20\n        /* \"#utility.yul\":1861:1864   */\n      dup3\n        /* \"#utility.yul\":1857:1871   */\n      add\n        /* \"#utility.yul\":1842:1871   */\n      swap1\n      pop\n        /* \"#utility.yul\":1708:1877   */\n      swap3\n      swap2\n      pop\n      pop\n      jump\t// out\n        /* \"#utility.yul\":1883:1960   */\n    tag_40:\n        /* \"#utility.yul\":1920:1927   */\n      0x00\n        /* \"#utility.yul\":1949:1954   */\n      dup2\n        /* \"#utility.yul\":1938:1954   */\n      swap1\n      pop\n        /* \"#utility.yul\":1883:1960   */\n      swap2\n      swap1\n      pop\n      jump\t// out\n        /* \"#utility.yul\":1966:2052   */\n    tag_49:\n        /* \"#utility.yul\":2001:2008   */\n      0x00\n        /* \"#utility.yul\":2041:2045   */\n      0xff\n        /* \"#utility.yul\":2034:2039   */\n      dup3\n        /* \"#utility.yul\":2030:2046   */\n      and\n        /* \"#utility.yul\":2019:2046   */\n      swap1\n      pop\n        /* \"#utility.yul\":1966:2052   */\n      swap2\n      swap1\n      pop\n      jump\t// out\n        /* \"#utility.yul\":2058:2234   */\n    tag_20:\n        /* \"#utility.yul\":2090:2091   */\n      0x00\n        /* \"#utility.yul\":2107:2127   */\n      tag_52\n        /* \"#utility.yul\":2125:2126   */\n      dup3\n        /* \"#utility.yul\":2107:2127   */\n      tag_40\n      jump\t// in\n    tag_52:\n        /* \"#utility.yul\":2102:2127   */\n      swap2\n      pop\n        /* \"#utility.yul\":2141:2161   */\n      tag_53\n        /* \"#utility.yul\":2159:2160   */\n      dup4\n        /* \"#utility.yul\":2141:2161   */\n      tag_40\n      jump\t// in\n    tag_53:\n        /* \"#utility.yul\":2136:2161   */\n      swap3\n      pop\n        /* \"#utility.yul\":2180:2181   */\n      dup3\n        /* \"#utility.yul\":2170:2205   */\n      tag_54\n      jumpi\n        /* \"#utility.yul\":2185:2203   */\n      tag_55\n      tag_56\n      jump\t// in\n    tag_55:\n        /* \"#utility.yul\":2170:2205   */\n    tag_54:\n        /* \"#utility.yul\":2226:2227   */\n      dup3\n        /* \"#utility.yul\":2223:2224   */\n      dup3\n        /* \"#utility.yul\":2219:2228   */\n      mod\n        /* \"#utility.yul\":2214:2228   */\n      swap1\n      pop\n        /* \"#utility.yul\":2058:2234   */\n      swap3\n      swap2\n      pop\n      pop\n      jump\t// out\n        /* \"#utility.yul\":2240:2420   */\n    tag_56:\n        /* \"#utility.yul\":2288:2365   */\n      0x4e487b7100000000000000000000000000000000000000000000000000000000\n        /* \"#utility.yul\":2285:2286   */\n      0x00\n        /* \"#utility.yul\":2278:2366   */\n      mstore\n        /* \"#utility.yul\":2385:2389   */\n      0x12\n        /* \"#utility.yul\":2382:2383   */\n      0x04\n        /* \"#utility.yul\":2375:2390   */\n      mstore\n        /* \"#utility.yul\":2409:2413   */\n      0x24\n        /* \"#utility.yul\":2406:2407   */\n      0x00\n        /* \"#utility.yul\":2399:2414   */\n      revert\n        /* \"#utility.yul\":2549:2666   */\n    tag_29:\n        /* \"#utility.yul\":2658:2659   */\n      0x00\n        /* \"#utility.yul\":2655:2656   */\n      dup1\n        /* \"#utility.yul\":2648:2660   */\n      revert\n        /* \"#utility.yul\":2672:2831   */\n    tag_36:\n        /* \"#utility.yul\":2812:2823   */\n      0x4e6f74206f776e65720000000000000000000000000000000000000000000000\n        /* \"#utility.yul\":2808:2809   */\n      0x00\n        /* \"#utility.yul\":2800:2806   */\n      dup3\n        /* \"#utility.yul\":2796:2810   */\n      add\n        /* \"#utility.yul\":2789:2824   */\n      mstore\n        /* \"#utility.yul\":2672:2831   */\n      pop\n      jump\t// out\n        /* \"#utility.yul\":2837:2955   */\n    tag_25:\n        /* \"#utility.yul\":2908:2930   */\n      tag_63\n        /* \"#utility.yul\":2924:2929   */\n      dup2\n        /* \"#utility.yul\":2908:2930   */\n      tag_49\n      jump\t// in\n    tag_63:\n        /* \"#utility.yul\":2901:2906   */\n      dup2\n        /* \"#utility.yul\":2898:2931   */\n      eq\n        /* \"#utility.yul\":2888:2949   */\n      tag_64\n      jumpi\n        /* \"#utility.yul\":2945:2946   */\n      0x00\n        /* \"#utility.yul\":2942:2943   */\n      dup1\n        /* \"#utility.yul\":2935:2947   */\n      revert\n        /* \"#utility.yul\":2888:2949   */\n    tag_64:\n        /* \"#utility.yul\":2837:2955   */\n      pop\n      jump\t// out\n\n    auxdata: 0xa264697066735822122053fbcc02356009f1c52717cca8873cf691c93a8b612cbac85b23f5951ee2906664736f6c63430008070033\n}\n",
				"bytecode": {
					"linkReferences": {},
					"object": "608060405234801561001057600080fd5b50604051610405380380610405833981810160405281019061003291906100a8565b33600060016101000a81548173ffffffffffffffffffffffffffffffffffffffff021916908373ffffffffffffffffffffffffffffffffffffffff160217905550806000806101000a81548160ff021916908360ff160217905550506100fe565b6000815190506100a2816100e7565b92915050565b6000602082840312156100be576100bd6100e2565b5b60006100cc84828501610093565b91505092915050565b600060ff82169050919050565b600080fd5b6100f0816100d5565b81146100fb57600080fd5b50565b6102f88061010d6000396000f3fe608060405234801561001057600080fd5b50600436106100365760003560e01c8063371f407b1461003b578063dbdff2c114610057575b600080fd5b6100556004803603810190610050919061015b565b610075565b005b61005f610122565b60405161006c91906101da565b60405180910390f35b600060019054906101000a900473ffffffffffffffffffffffffffffffffffffffff1673ffffffffffffffffffffffffffffffffffffffff163373ffffffffffffffffffffffffffffffffffffffff1614610105576040517f08c379a00000000000000000000000000000000000000000000000000000000081526004016100fc906101ba565b60405180910390fd5b806000806101000a81548160ff021916908360ff16021790555050565b60008060009054906101000a900460ff1660ff1643610141919061021d565b905090565b600081359050610155816102ab565b92915050565b6000602082840312156101715761017061027d565b5b600061017f84828501610146565b91505092915050565b60006101956009836101f5565b91506101a082610282565b602082019050919050565b6101b481610206565b82525050565b600060208201905081810360008301526101d381610188565b9050919050565b60006020820190506101ef60008301846101ab565b92915050565b600082825260208201905092915050565b6000819050919050565b600060ff82169050919050565b600061022882610206565b915061023383610206565b9250826102435761024261024e565b5b828206905092915050565b7f4e487b7100000000000000000000000000000000000000000000000000000000600052601260045260246000fd5b600080fd5b7f4e6f74206f776e65720000000000000000000000000000000000000000000000600082015250565b6102b481610210565b81146102bf57600080fd5b5056fea264697066735822122053fbcc02356009f1c52717cca8873cf691c93a8b612cbac85b23f5951ee2906664736f6c63430008070033",
					"opcodes": "PUSH1 0x80 PUSH1 0x40 MSTORE CALLVALUE DUP1 ISZERO PUSH2 0x10 JUMPI PUSH1 0x0 DUP1 REVERT JUMPDEST POP PUSH1 0x40 MLOAD PUSH2 0x405 CODESIZE SUB DUP1 PUSH2 0x405 DUP4 CODECOPY DUP2 DUP2 ADD PUSH1 0x40 MSTORE DUP2 ADD SWAP1 PUSH2 0x32 SWAP2 SWAP1 PUSH2 0xA8 JUMP JUMPDEST CALLER PUSH1 0x0 PUSH1 0x1 PUSH2 0x100 EXP DUP2 SLOAD DUP2 PUSH20 0xFFFFFFFFFFFFFFFFFFFFFFFFFFFFFFFFFFFFFFFF MUL NOT AND SWAP1 DUP4 PUSH20 0xFFFFFFFFFFFFFFFFFFFFFFFFFFFFFFFFFFFFFFFF AND MUL OR SWAP1 SSTORE POP DUP1 PUSH1 0x0 DUP1 PUSH2 0x100 EXP DUP2 SLOAD DUP2 PUSH1 0xFF MUL NOT AND SWAP1 DUP4 PUSH1 0xFF AND MUL OR SWAP1 SSTORE POP POP PUSH2 0xFE JUMP JUMPDEST PUSH1 0x0 DUP2 MLOAD SWAP1 POP PUSH2 0xA2 DUP2 PUSH2 0xE7 JUMP JUMPDEST SWAP3 SWAP2 POP POP JUMP JUMPDEST PUSH1 0x0 PUSH1 0x20 DUP3 DUP5 SUB SLT ISZERO PUSH2 0xBE JUMPI PUSH2 0xBD PUSH2 0xE2 JUMP JUMPDEST JUMPDEST PUSH1 0x0 PUSH2 0xCC DUP5 DUP3 DUP6 ADD PUSH2 0x93 JUMP JUMPDEST SWAP2 POP POP SWAP3 SWAP2 POP POP JUMP JUMPDEST PUSH1 0x0 PUSH1 0xFF DUP3 AND SWAP1 POP SWAP2 SWAP1 POP JUMP JUMPDEST PUSH1 0x0 DUP1 REVERT JUMPDEST PUSH2 0xF0 DUP2 PUSH2 0xD5 JUMP JUMPDEST DUP2 EQ PUSH2 0xFB JUMPI PUSH1 0x0 DUP1 REVERT JUMPDEST POP JUMP JUMPDEST PUSH2 0x2F8 DUP1 PUSH2 0x10D PUSH1 0x0 CODECOPY PUSH1 0x0 RETURN INVALID PUSH1 0x80 PUSH1 0x40 MSTORE CALLVALUE DUP1 ISZERO PUSH2 0x10 JUMPI PUSH1 0x0 DUP1 REVERT JUMPDEST POP PUSH1 0x4 CALLDATASIZE LT PUSH2 0x36 JUMPI PUSH1 0x0 CALLDATALOAD PUSH1 0xE0 SHR DUP1 PUSH4 0x371F407B EQ PUSH2 0x3B JUMPI DUP1 PUSH4 0xDBDFF2C1 EQ PUSH2 0x57 JUMPI JUMPDEST PUSH1 0x0 DUP1 REVERT JUMPDEST PUSH2 0x55 PUSH1 0x4 DUP1 CALLDATASIZE SUB DUP2 ADD SWAP1 PUSH2 0x50 SWAP2 SWAP1 PUSH2 0x15B JUMP JUMPDEST PUSH2 0x75 JUMP JUMPDEST STOP JUMPDEST PUSH2 0x5F PUSH2 0x122 JUMP JUMPDEST PUSH1 0x40 MLOAD PUSH2 0x6C SWAP2 SWAP1 PUSH2 0x1DA JUMP JUMPDEST PUSH1 0x40 MLOAD DUP1 SWAP2 SUB SWAP1 RETURN JUMPDEST PUSH1 0x0 PUSH1 0x1 SWAP1 SLOAD SWAP1 PUSH2 0x100 EXP SWAP1 DIV PUSH20 0xFFFFFFFFFFFFFFFFFFFFFFFFFFFFFFFFFFFFFFFF AND PUSH20 0xFFFFFFFFFFFFFFFFFFFFFFFFFFFFFFFFFFFFFFFF AND CALLER PUSH20 0xFFFFFFFFFFFFFFFFFFFFFFFFFFFFFFFFFFFFFFFF AND EQ PUSH2 0x105 JUMPI PUSH1 0x40 MLOAD PUSH32 0x8C379A000000000000000000000000000000000000000000000000000000000 DUP2 MSTORE PUSH1 0x4 ADD PUSH2 0xFC SWAP1 PUSH2 0x1BA JUMP JUMPDEST PUSH1 0x40 MLOAD DUP1 SWAP2 SUB SWAP1 REVERT JUMPDEST DUP1 PUSH1 0x0 DUP1 PUSH2 0x100 EXP DUP2 SLOAD DUP2 PUSH1 0xFF MUL NOT AND SWAP1 DUP4 PUSH1 0xFF AND MUL OR SWAP1 SSTORE POP POP JUMP JUMPDEST PUSH1 0x0 DUP1 PUSH1 0x0 SWAP1 SLOAD SWAP1 PUSH2 0x100 EXP SWAP1 DIV PUSH1 0xFF AND PUSH1 0xFF AND NUMBER PUSH2 0x141 SWAP2 SWAP1 PUSH2 0x21D JUMP JUMPDEST SWAP1 POP SWAP1 JUMP JUMPDEST PUSH1 0x0 DUP2 CALLDATALOAD SWAP1 POP PUSH2 0x155 DUP2 PUSH2 0x2AB JUMP JUMPDEST SWAP3 SWAP2 POP POP JUMP JUMPDEST PUSH1 0x0 PUSH1 0x20 DUP3 DUP5 SUB SLT ISZERO PUSH2 0x171 JUMPI PUSH2 0x170 PUSH2 0x27D JUMP JUMPDEST JUMPDEST PUSH1 0x0 PUSH2 0x17F DUP5 DUP3 DUP6 ADD PUSH2 0x146 JUMP JUMPDEST SWAP2 POP POP SWAP3 SWAP2 POP POP JUMP JUMPDEST PUSH1 0x0 PUSH2 0x195 PUSH1 0x9 DUP4 PUSH2 0x1F5 JUMP JUMPDEST SWAP2 POP PUSH2 0x1A0 DUP3 PUSH2 0x282 JUMP JUMPDEST PUSH1 0x20 DUP3 ADD SWAP1 POP SWAP2 SWAP1 POP JUMP JUMPDEST PUSH2 0x1B4 DUP2 PUSH2 0x206 JUMP JUMPDEST DUP3 MSTORE POP POP JUMP JUMPDEST PUSH1 0x0 PUSH1 0x20 DUP3 ADD SWAP1 POP DUP2 DUP2 SUB PUSH1 0x0 DUP4 ADD MSTORE PUSH2 0x1D3 DUP2 PUSH2 0x188 JUMP JUMPDEST SWAP1 POP SWAP2 SWAP1 POP JUMP JUMPDEST PUSH1 0x0 PUSH1 0x20 DUP3 ADD SWAP1 POP PUSH2 0x1EF PUSH1 0x0 DUP4 ADD DUP5 PUSH2 0x1AB JUMP JUMPDEST SWAP3 SWAP2 POP POP JUMP JUMPDEST PUSH1 0x0 DUP3 DUP3 MSTORE PUSH1 0x20 DUP3 ADD SWAP1 POP SWAP3 SWAP2 POP POP JUMP JUMPDEST PUSH1 0x0 DUP2 SWAP1 POP SWAP2 SWAP1 POP JUMP JUMPDEST PUSH1 0x0 PUSH1 0xFF DUP3 AND SWAP1 POP SWAP2 SWAP1 POP JUMP JUMPDEST PUSH1 0x0 PUSH2 0x228 DUP3 PUSH2 0x206 JUMP JUMPDEST SWAP2 POP PUSH2 0x233 DUP4 PUSH2 0x206 JUMP JUMPDEST SWAP3 POP DUP3 PUSH2 0x243 JUMPI PUSH2 0x242 PUSH2 0x24E JUMP JUMPDEST JUMPDEST DUP3 DUP3 MOD SWAP1 POP SWAP3 SWAP2 POP POP JUMP JUMPDEST PUSH32 0x4E487B7100000000000000000000000000000000000000000000000000000000 PUSH1 0x0 MSTORE PUSH1 0x12 PUSH1 0x4 MSTORE PUSH1 0x24 PUSH1 0x0 REVERT JUMPDEST PUSH1 0x0 DUP1 REVERT JUMPDEST PUSH32 0x4E6F74206F776E65720000000000000000000000000000000000000000000000 PUSH1 0x0 DUP3 ADD MSTORE POP JUMP JUMPDEST PUSH2 0x2B4 DUP2 PUSH2 0x210 JUMP JUMPDEST DUP2 EQ PUSH2 0x2BF JUMPI PUSH1 0x0 DUP1 REVERT JUMPDEST POP JUMP INVALID LOG2 PUSH5 0x6970667358 0x22 SLT KECCAK256 MSTORE8 0xFB 0xCC MUL CALLDATALOAD PUSH1 0x9 CALL 0xC5 0x27 OR 0xCC 0xA8 DUP8 EXTCODECOPY 0xF6 SWAP2 0xC9 GASPRICE DUP12 PUSH2 0x2CBA 0xC8 JUMPDEST 0x23 CREATE2 SWAP6 0x1E 0xE2 SWAP1 PUSH7 0x64736F6C634300 ADDMOD SMOD STOP CALLER "
				},
				"gasEstimates": {
					"creation": {
						"codeDepositCost": "152000",
						"executionCost": "infinite",
						"totalCost": "infinite"
					},
					"external": {
						"changeSeed(uint8)": "26877",
						"getRandomNumber()": "infinite"
					}
				},
				"methodIdentifiers": {
					"changeSeed(uint8)": "371f407b",
					"getRandomNumber()": "dbdff2c1"
				}
			},
			"storageLayout": {
				"storage": [
					{
						"astId": 4,
						"contract": "src/Oracle.sol:Oracle",
						"label": "seed",
						"offset": 0,
						"slot": "0",
						"type": "t_uint8"
					},
					{
						"astId": 6,
						"contract": "src/Oracle.sol:Oracle",
						"label": "owner",
						"offset": 1,
						"slot": "0",
						"type": "t_address"
					}
				],
				"types": {
					"t_address": {
						"encoding": "inplace",
						"label": "address",
						"numberOfBytes": "20"
					},
					"t_uint8": {
						"encoding": "inplace",
						"label": "uint8",
						"numberOfBytes": "1"
					}
				}
			},
			"userdoc": {
				"kind": "user",
				"methods": {},
				"notice": "WARNING - NEVER USE IN PRODUCTION - FOR EDUCATIONAL PURPOSES ONLY!",
				"version": 1
			}
		}
	}
}